{
  "contractName": "PharmaSupplyChain",
  "abi": [
    {
      "inputs": [
        {
          "internalType": "string",
          "name": "_Name",
          "type": "string"
        },
        {
          "internalType": "uint32",
          "name": "_ContactNo",
          "type": "uint32"
        },
        {
          "internalType": "string",
          "name": "_UserName",
          "type": "string"
        },
        {
          "internalType": "string",
          "name": "_UserPassword",
          "type": "string"
        },
        {
          "internalType": "string",
          "name": "_Email",
          "type": "string"
        }
      ],
      "stateMutability": "nonpayable",
      "type": "constructor"
    },
    {
      "inputs": [],
      "name": "AdminAddress",
      "outputs": [
        {
          "internalType": "address",
          "name": "",
          "type": "address"
        }
      ],
      "stateMutability": "view",
      "type": "function"
    },
    {
      "inputs": [
        {
          "internalType": "address",
          "name": "",
          "type": "address"
        }
      ],
      "name": "BatchDrugDetails",
      "outputs": [
        {
          "internalType": "uint32",
          "name": "DrugID",
          "type": "uint32"
        },
        {
          "internalType": "uint32",
          "name": "BatchID",
          "type": "uint32"
        },
        {
          "internalType": "string",
          "name": "DrugName",
          "type": "string"
        },
        {
          "internalType": "string",
          "name": "Currentlocation",
          "type": "string"
        },
        {
          "internalType": "string",
          "name": "CurrentproductOwner",
          "type": "string"
        },
        {
          "internalType": "string",
          "name": "NextOwner",
          "type": "string"
        },
        {
          "internalType": "uint256",
          "name": "MfgTimeStamp",
          "type": "uint256"
        },
        {
          "internalType": "uint256",
          "name": "ExpTimeStamp",
          "type": "uint256"
        },
        {
          "internalType": "int8",
          "name": "CurrentTemperature",
          "type": "int8"
        },
        {
          "internalType": "int8",
          "name": "IdealTemperature",
          "type": "int8"
        },
        {
          "internalType": "string",
          "name": "Status",
          "type": "string"
        },
        {
          "internalType": "bool",
          "name": "IsBad",
          "type": "bool"
        }
      ],
      "stateMutability": "view",
      "type": "function"
    },
    {
      "inputs": [
        {
          "internalType": "address",
          "name": "",
          "type": "address"
        }
      ],
      "name": "BatchManufactureringDetails",
      "outputs": [
        {
          "internalType": "string",
          "name": "ManufacturerUserName",
          "type": "string"
        },
        {
          "internalType": "string",
          "name": "Location",
          "type": "string"
        },
        {
          "internalType": "string",
          "name": "ExporterUserName",
          "type": "string"
        },
        {
          "internalType": "int8",
          "name": "ExportingTemparature",
          "type": "int8"
        },
        {
          "internalType": "uint256",
          "name": "ExportingDateTime",
          "type": "uint256"
        },
        {
          "internalType": "string",
          "name": "DrugStatus",
          "type": "string"
        }
      ],
      "stateMutability": "view",
      "type": "function"
    },
    {
      "inputs": [
        {
          "internalType": "address",
          "name": "",
          "type": "address"
        }
      ],
      "name": "BatchPharmacyDetails",
      "outputs": [
        {
          "internalType": "string",
          "name": "PharmacyName",
          "type": "string"
        },
        {
          "internalType": "string",
          "name": "Location",
          "type": "string"
        },
        {
          "internalType": "int8",
          "name": "ImportingTemparature",
          "type": "int8"
        },
        {
          "internalType": "string",
          "name": "DrugStatus",
          "type": "string"
        },
        {
          "internalType": "uint256",
          "name": "ImportingDateTime",
          "type": "uint256"
        }
      ],
      "stateMutability": "view",
      "type": "function"
    },
    {
      "inputs": [
        {
          "internalType": "string",
          "name": "",
          "type": "string"
        }
      ],
      "name": "BatchUserDetails",
      "outputs": [
        {
          "internalType": "string",
          "name": "Name",
          "type": "string"
        },
        {
          "internalType": "uint32",
          "name": "ContactNo",
          "type": "uint32"
        },
        {
          "internalType": "bool",
          "name": "IsActive",
          "type": "bool"
        },
        {
          "internalType": "string",
          "name": "UserName",
          "type": "string"
        },
        {
          "internalType": "string",
          "name": "Password",
          "type": "string"
        },
        {
          "internalType": "string",
          "name": "Email",
          "type": "string"
        },
        {
          "internalType": "string",
          "name": "Role",
          "type": "string"
        }
      ],
      "stateMutability": "view",
      "type": "function"
    },
    {
      "inputs": [
        {
          "internalType": "address",
          "name": "",
          "type": "address"
        }
      ],
      "name": "BatchWholesalerDetails",
      "outputs": [
        {
          "internalType": "string",
          "name": "WholeSalerUserName",
          "type": "string"
        },
        {
          "internalType": "string",
          "name": "Location",
          "type": "string"
        },
        {
          "internalType": "int8",
          "name": "ImportingTemparature",
          "type": "int8"
        },
        {
          "internalType": "int8",
          "name": "ExportingTemparature",
          "type": "int8"
        },
        {
          "internalType": "uint256",
          "name": "ImportingDateTime",
          "type": "uint256"
        },
        {
          "internalType": "uint256",
          "name": "ExportingDateTime",
          "type": "uint256"
        },
        {
          "internalType": "string",
          "name": "DrugStatus",
          "type": "string"
        }
      ],
      "stateMutability": "view",
      "type": "function"
    },
    {
      "inputs": [
        {
          "internalType": "address",
          "name": "",
          "type": "address"
        }
      ],
      "name": "BatchdistributorDetails",
      "outputs": [
        {
          "internalType": "string",
          "name": "DistributorUserName",
          "type": "string"
        },
        {
          "internalType": "string",
          "name": "Location",
          "type": "string"
        },
        {
          "internalType": "int8",
          "name": "ImportingTemparature",
          "type": "int8"
        },
        {
          "internalType": "int8",
          "name": "ExportingTemparature",
          "type": "int8"
        },
        {
          "internalType": "uint256",
          "name": "ImportingDateTime",
          "type": "uint256"
        },
        {
          "internalType": "uint256",
          "name": "ExportingDateTime",
          "type": "uint256"
        },
        {
          "internalType": "string",
          "name": "ExporterUserName",
          "type": "string"
        },
        {
          "internalType": "string",
          "name": "DrugStatus",
          "type": "string"
        }
      ],
      "stateMutability": "view",
      "type": "function"
    },
    {
      "inputs": [
        {
          "internalType": "uint256",
          "name": "",
          "type": "uint256"
        }
      ],
      "name": "DrugKeyList",
      "outputs": [
        {
          "internalType": "address",
          "name": "",
          "type": "address"
        }
      ],
      "stateMutability": "view",
      "type": "function"
    },
    {
      "inputs": [
        {
          "internalType": "uint256",
          "name": "",
          "type": "uint256"
        }
      ],
      "name": "UserNameList",
      "outputs": [
        {
          "internalType": "string",
          "name": "",
          "type": "string"
        }
      ],
      "stateMutability": "view",
      "type": "function"
    },
    {
      "inputs": [
        {
          "internalType": "string",
          "name": "ThisUser",
          "type": "string"
        },
        {
          "internalType": "string",
          "name": "_Name",
          "type": "string"
        },
        {
          "internalType": "uint32",
          "name": "_ContactNo",
          "type": "uint32"
        },
        {
          "internalType": "string",
          "name": "_UserName",
          "type": "string"
        },
        {
          "internalType": "string",
          "name": "_UserPassword",
          "type": "string"
        },
        {
          "internalType": "string",
          "name": "_Email",
          "type": "string"
        },
        {
          "internalType": "string",
          "name": "_Role",
          "type": "string"
        }
      ],
      "name": "setUser",
      "outputs": [
        {
          "internalType": "bool",
          "name": "",
          "type": "bool"
        }
      ],
      "stateMutability": "nonpayable",
      "type": "function"
    },
    {
      "inputs": [
        {
          "internalType": "string",
          "name": "ThisUser",
          "type": "string"
        },
        {
          "internalType": "uint32",
          "name": "_DrugID",
          "type": "uint32"
        },
        {
          "internalType": "uint32",
          "name": "_BatchID",
          "type": "uint32"
        },
        {
          "internalType": "string",
          "name": "_DrugName",
          "type": "string"
        },
        {
          "internalType": "string",
          "name": "_Currentlocation",
          "type": "string"
        },
        {
          "internalType": "uint256",
          "name": "_MfgTimeStamp",
          "type": "uint256"
        },
        {
          "internalType": "uint256",
          "name": "_ExpTimeStamp",
          "type": "uint256"
        },
        {
          "internalType": "int8",
          "name": "_CurrentTemperature",
          "type": "int8"
        },
        {
          "internalType": "int8",
          "name": "_IdealTemperature",
          "type": "int8"
        },
        {
          "internalType": "address",
          "name": "_SerialNumber",
          "type": "address"
        }
      ],
      "name": "addDrugDetails",
      "outputs": [
        {
          "internalType": "address",
          "name": "",
          "type": "address"
        }
      ],
      "stateMutability": "nonpayable",
      "type": "function"
    },
    {
      "inputs": [
        {
          "internalType": "address",
          "name": "_SerialNumber",
          "type": "address"
        },
        {
          "internalType": "string",
          "name": "_ManufacturerUserName",
          "type": "string"
        },
        {
          "internalType": "string",
          "name": "_Location",
          "type": "string"
        },
        {
          "internalType": "string",
          "name": "_DistributorUserName",
          "type": "string"
        },
        {
          "internalType": "int8",
          "name": "_ExportingTemparature",
          "type": "int8"
        }
      ],
      "name": "moveFromManufacturer",
      "outputs": [
        {
          "internalType": "bool",
          "name": "",
          "type": "bool"
        }
      ],
      "stateMutability": "nonpayable",
      "type": "function"
    },
    {
      "inputs": [
        {
          "internalType": "address",
          "name": "_SerialNumber",
          "type": "address"
        },
        {
          "internalType": "string",
          "name": "_DistributorUserName",
          "type": "string"
        },
        {
          "internalType": "string",
          "name": "_Location",
          "type": "string"
        },
        {
          "internalType": "int8",
          "name": "_ImportingTemparature",
          "type": "int8"
        }
      ],
      "name": "distributorReceving",
      "outputs": [
        {
          "internalType": "bool",
          "name": "",
          "type": "bool"
        }
      ],
      "stateMutability": "nonpayable",
      "type": "function"
    },
    {
      "inputs": [
        {
          "internalType": "string",
          "name": "ThisUser",
          "type": "string"
        },
        {
          "internalType": "address",
          "name": "_SerialNumber",
          "type": "address"
        },
        {
          "internalType": "int8",
          "name": "_ExportingTemparature",
          "type": "int8"
        },
        {
          "internalType": "string",
          "name": "_ExporterUserName",
          "type": "string"
        }
      ],
      "name": "moveFromDistributor",
      "outputs": [
        {
          "internalType": "bool",
          "name": "",
          "type": "bool"
        }
      ],
      "stateMutability": "nonpayable",
      "type": "function"
    },
    {
      "inputs": [
        {
          "internalType": "address",
          "name": "_SerialNumber",
          "type": "address"
        },
        {
          "internalType": "string",
          "name": "_WholeSalerUserName",
          "type": "string"
        },
        {
          "internalType": "string",
          "name": "_Location",
          "type": "string"
        },
        {
          "internalType": "int8",
          "name": "_ImportingTemparature",
          "type": "int8"
        }
      ],
      "name": "wholesalerReceving",
      "outputs": [
        {
          "internalType": "bool",
          "name": "",
          "type": "bool"
        }
      ],
      "stateMutability": "nonpayable",
      "type": "function"
    },
    {
      "inputs": [
        {
          "internalType": "string",
          "name": "ThisUser",
          "type": "string"
        },
        {
          "internalType": "address",
          "name": "_SerialNumber",
          "type": "address"
        },
        {
          "internalType": "int8",
          "name": "_ExportingTemparature",
          "type": "int8"
        },
        {
          "internalType": "string",
          "name": "_PharmacyUserName",
          "type": "string"
        }
      ],
      "name": "moveFromWholeSaler",
      "outputs": [
        {
          "internalType": "bool",
          "name": "",
          "type": "bool"
        }
      ],
      "stateMutability": "nonpayable",
      "type": "function"
    },
    {
      "inputs": [
        {
          "internalType": "address",
          "name": "_SerialNumber",
          "type": "address"
        },
        {
          "internalType": "string",
          "name": "_PharmacyUserName",
          "type": "string"
        },
        {
          "internalType": "string",
          "name": "_Location",
          "type": "string"
        },
        {
          "internalType": "int8",
          "name": "_ImportingTemparature",
          "type": "int8"
        }
      ],
      "name": "importToPharmacy",
      "outputs": [
        {
          "internalType": "bool",
          "name": "",
          "type": "bool"
        }
      ],
      "stateMutability": "nonpayable",
      "type": "function"
    },
    {
      "inputs": [
        {
          "internalType": "string",
          "name": "_username",
          "type": "string"
        },
        {
          "internalType": "string",
          "name": "_password",
          "type": "string"
        }
      ],
      "name": "Authenticate",
      "outputs": [
        {
          "internalType": "bool",
          "name": "",
          "type": "bool"
        }
      ],
      "stateMutability": "view",
      "type": "function"
    },
    {
      "inputs": [
        {
          "internalType": "address",
          "name": "newAdmin",
          "type": "address"
        },
        {
          "internalType": "string",
          "name": "_UserName",
          "type": "string"
        },
        {
          "internalType": "string",
          "name": "ThisUser",
          "type": "string"
        }
      ],
      "name": "changeAdmin",
      "outputs": [],
      "stateMutability": "nonpayable",
      "type": "function"
    }
  ],
  "bytecode": "0x60806040523480156200001157600080fd5b50604051620063e0380380620063e08339810160408190526200003491620004ee565b600080546001600160a01b0319163317905584516200005b906016906020880190620002ea565b506017805463ffffffff191663ffffffff8616179055825162000086906018906020860190620002ea565b5081516200009c906019906020850190620002ea565b508051620000b290601a906020840190620002ea565b506040805180820190915260058082526420b236b4b760d91b6020909201918252620000e191601b91620002ea565b506017805460ff60201b1916640100000000179055604051601690600b906200010c908690620005c5565b9081526040519081900360200190208154819083906200012c90620005e3565b6200013992919062000379565b5060018281018054918301805463ffffffff19811663ffffffff9094169384178255915460ff640100000000918290041615150264ffffffffff1990921690921717905560028083018054918301916200019390620005e3565b620001a092919062000379565b506003820181600301908054620001b790620005e3565b620001c492919062000379565b506004820181600401908054620001db90620005e3565b620001e892919062000379565b506005820181600501908054620001ff90620005e3565b6200020c92919062000379565b509050506040518060400160405280600581526020016420b236b4b760d91b815250600384604051620002409190620005c5565b9081526020016040518091039020908051906020019062000263929190620002ea565b50600280546001810182556000919091528351620002a9917f405787fa12a823e0f2b7631cc41b3ba8828b3321ca811111fa75cd3aa3bb5ace01906020860190620002ea565b506001600584604051620002be9190620005c5565b908152604051908190036020019020805491151560ff19909216919091179055506200061f9350505050565b828054620002f890620005e3565b90600052602060002090601f0160209004810192826200031c576000855562000367565b82601f106200033757805160ff191683800117855562000367565b8280016001018555821562000367579182015b82811115620003675782518255916020019190600101906200034a565b5062000375929150620003fd565b5090565b8280546200038790620005e3565b90600052602060002090601f016020900481019282620003ab576000855562000367565b82601f10620003be578054855562000367565b828001600101855582156200036757600052602060002091601f016020900482015b8281111562000367578254825591600101919060010190620003e0565b5b80821115620003755760008155600101620003fe565b634e487b7160e01b600052604160045260246000fd5b60005b83811015620004475781810151838201526020016200042d565b8381111562000457576000848401525b50505050565b600082601f8301126200046f57600080fd5b81516001600160401b03808211156200048c576200048c62000414565b604051601f8301601f19908116603f01168101908282118183101715620004b757620004b762000414565b81604052838152866020858801011115620004d157600080fd5b620004e48460208301602089016200042a565b9695505050505050565b600080600080600060a086880312156200050757600080fd5b85516001600160401b03808211156200051f57600080fd5b6200052d89838a016200045d565b96506020880151915063ffffffff821682146200054957600080fd5b6040880151919550808211156200055f57600080fd5b6200056d89838a016200045d565b945060608801519150808211156200058457600080fd5b6200059289838a016200045d565b93506080880151915080821115620005a957600080fd5b50620005b8888289016200045d565b9150509295509295909350565b60008251620005d98184602087016200042a565b9190910192915050565b600181811c90821680620005f857607f821691505b6020821081036200061957634e487b7160e01b600052602260045260246000fd5b50919050565b615db1806200062f6000396000f3fe608060405234801561001057600080fd5b50600436106101215760003560e01c80636c739b40116100ad578063bf48c72d11610071578063bf48c72d146102b7578063cb44685f146102ca578063ddf2963d146102ef578063f3c954a314610302578063fa3bb9211461031557600080fd5b80636c739b40146102335780637080f2eb1461024657806373b651141461026d578063ad0f80c314610291578063b64b82dc146102a457600080fd5b806328f661e3116100f457806328f661e314610189578063374b49dc146101b45780634948ebe2146101da578063507d77dd146101fa578063599fe9311461020d57600080fd5b806306b1a697146101265780630aaee3301461014e57806321993bfc1461016157806328246a7314610174575b600080fd5b61013961013436600461533f565b610340565b60405190151581526020015b60405180910390f35b61013961015c3660046153c4565b610e28565b61013961016f3660046153c4565b611716565b610187610182366004615449565b611f0d565b005b60005461019c906001600160a01b031681565b6040516001600160a01b039091168152602001610145565b6101c76101c23660046154bd565b61206e565b6040516101459796959493929190615556565b6101ed6101e83660046155d9565b61236a565b60405161014591906155f2565b61013961020836600461533f565b612416565b61022061021b36600461560c565b612b6a565b6040516101459796959493929190615627565b610139610241366004615692565b612cc4565b61025961025436600461560c565b612ff8565b604051610145989796959493929190615799565b61028061027b36600461560c565b613263565b604051610145959493929190615816565b61013961029f3660046153c4565b613436565b6101396102b236600461586b565b613b0b565b6101396102c5366004615915565b614026565b6102dd6102d836600461560c565b614422565b60405161014596959493929190615979565b61019c6102fd3660046159e2565b614683565b61019c6103103660046155d9565b614a27565b61032861032336600461560c565b614a51565b6040516101459c9b9a99989796959493929190615ad3565b6000836040518060400160405280600a8152602001692bb437b632b9b0b632b960b11b8152508660008260405160200161037a9190615b9b565b604051602081830303815290604052805190602001206003836040516103a09190615b9b565b90815260200160405180910390206040516020016103be9190615bf1565b60405160208183030381529060405280519060200120146103de57600080fd5b801561090557816040516020016103f59190615b9b565b60408051601f1981840301815282825280516020918201206001600160a01b038816600090815260048352929092209192610431929101615bf1565b604051602081830303815290604052805190602001201461045157600080fd5b600061045d8989614d6c565b9050806104855760405162461bcd60e51b815260040161047c90615c8c565b60405180910390fd5b6001600160a01b03891660009081526006602052604090208054600c805463ffffffff92831663ffffffff1982168117835584546001600160401b031990921617600160201b9182900490931602919091178155600182018054600d91906104ec90615bb7565b6104f792919061511d565b50600282018160020190805461050c90615bb7565b61051792919061511d565b50600382018160030190805461052c90615bb7565b61053792919061511d565b50600482018160040190805461054c90615bb7565b61055792919061511d565b50600582810154908201556006808301549082015560078083018054918301805460ff93841660ff1982168117835592546101009081900490941690930261ffff1990931690911791909117905560088083018054918301916105b990615bb7565b6105c492919061511d565b506009918201549101805460ff191660ff909216151591909117905560408051808201909152601b8082527f496e205472616e7369742066726f6d204469737472696275746f7200000000006020909201918252610624916014916151a8565b5086516106389060109060208a01906151a8565b506040805180820190915260078082526614da1a5c1c195960ca1b6020909201918252610667916014916151a8565b50602b805461ff00191661010060ff8b160217905542602d556040805180820190915260078082526614da1a5c1c195960ca1b60209092019182526106ae91602e916151a8565b506001600160a01b038916600090815260096020526040902060298054909190819083906106db90615bb7565b6106e692919061511d565b5060018201816001019080546106fb90615bb7565b61070692919061511d565b5060028281018054918301805460ff93841660ff1982168117835592546101009081900490941690930261ffff199093169091179190911790556003808301549082015560048083015490820155600580830180549183019161076890615bb7565b61077392919061511d565b5050506001600160a01b0389166000908152600460209081526040909120885161079f928a01906151a8565b506001600160a01b0389166000908152600660205260409020600c8054825463ffffffff91821663ffffffff1982168117855583546001600160401b031990921617600160201b9182900490921602178255600d805491929160018301919061080790615bb7565b61081292919061511d565b50600282018160020190805461082790615bb7565b61083292919061511d565b50600382018160030190805461084790615bb7565b61085292919061511d565b50600482018160040190805461086790615bb7565b61087292919061511d565b50600582810154908201556006808301549082015560078083018054918301805460ff93841660ff1982168117835592546101009081900490941690930261ffff1990931690911791909117905560088083018054918301916108d490615bb7565b6108df92919061511d565b506009918201549101805460ff191660ff90921615159190911790555060019450610e1c565b816040516020016109169190615b9b565b60408051601f1981840301815282825280516020918201206001600160a01b038816600090815260068352929092209192610955926003019101615bf1565b604051602081830303815290604052805190602001201461097557600080fd5b60006109818989614d6c565b9050806109a05760405162461bcd60e51b815260040161047c90615c8c565b6001600160a01b03891660009081526006602052604090208054600c805463ffffffff92831663ffffffff1982168117835584546001600160401b031990921617600160201b9182900490931602919091178155600182018054600d9190610a0790615bb7565b610a1292919061511d565b506002820181600201908054610a2790615bb7565b610a3292919061511d565b506003820181600301908054610a4790615bb7565b610a5292919061511d565b506004820181600401908054610a6790615bb7565b610a7292919061511d565b50600582810154908201556006808301549082015560078083018054918301805460ff93841660ff1982168117835592546101009081900490941690930261ffff199093169091179190911790556008808301805491830191610ad490615bb7565b610adf92919061511d565b506009918201549101805460ff191660ff909216151591909117905560408051808201909152601b8082527f496e205472616e7369742066726f6d204469737472696275746f7200000000006020909201918252610b3f916014916151a8565b508651610b539060109060208a01906151a8565b506040805180820190915260078082526614da1a5c1c195960ca1b6020909201918252610b82916014916151a8565b50602b805461ff00191661010060ff8b160217905542602d556040805180820190915260078082526614da1a5c1c195960ca1b6020909201918252610bc991602e916151a8565b506001600160a01b03891660009081526009602052604090206029805490919081908390610bf690615bb7565b610c0192919061511d565b506001820181600101908054610c1690615bb7565b610c2192919061511d565b5060028281018054918301805460ff93841660ff1982168117835592546101009081900490941690930261ffff1990931690911791909117905560038083015490820155600480830154908201556005808301805491830191610c8390615bb7565b610c8e92919061511d565b5050506001600160a01b03891660009081526004602090815260409091208851610cba928a01906151a8565b506001600160a01b0389166000908152600660205260409020600c8054825463ffffffff91821663ffffffff1982168117855583546001600160401b031990921617600160201b9182900490921602178255600d8054919291600183019190610d2290615bb7565b610d2d92919061511d565b506002820181600201908054610d4290615bb7565b610d4d92919061511d565b506003820181600301908054610d6290615bb7565b610d6d92919061511d565b506004820181600401908054610d8290615bb7565b610d8d92919061511d565b50600582810154908201556006808301549082015560078083018054918301805460ff93841660ff1982168117835592546101009081900490941690930261ffff199093169091179190911790556008808301805491830191610def90615bb7565b610dfa92919061511d565b506009918201549101805460ff191660ff909216151591909117905550600194505b50505050949350505050565b6000846040518060400160405280600b81526020016a2234b9ba3934b13aba37b960a91b81525085600182604051602001610e639190615b9b565b60405160208183030381529060405280519060200120600383604051610e899190615b9b565b9081526020016040518091039020604051602001610ea79190615bf1565b6040516020818303038152906040528051906020012014610ec757600080fd5b80156112f05781604051602001610ede9190615b9b565b60408051601f1981840301815282825280516020918201206001600160a01b038816600090815260048352929092209192610f1a929101615bf1565b6040516020818303038152906040528051906020012014610f3a57600080fd5b6000610f468a88614d6c565b905080610f655760405162461bcd60e51b815260040161047c90615cf8565b6001600160a01b038a1660009081526006602052604090208054600c805463ffffffff92831663ffffffff1982168117835584546001600160401b031990921617600160201b9182900490931602919091178155600182018054600d9190610fcc90615bb7565b610fd792919061511d565b506002820181600201908054610fec90615bb7565b610ff792919061511d565b50600382018160030190805461100c90615bb7565b61101792919061511d565b50600482018160040190805461102c90615bb7565b61103792919061511d565b50600582810154908201556006808301549082015560078083018054918301805460ff93841660ff1982168117835592546101009081900490941690930261ffff19909316909117919091179055600880830180549183019161109990615bb7565b6110a492919061511d565b506009918201549101805460ff191660ff909216151591909117905588516110d39060229060208c01906151a8565b5087516110e79060239060208b01906151a8565b506024805460ff191660ff89161790554260255560408051808201909152600880825267149958d95a5d995960c21b602090920191825261112a916028916151a8565b506001600160a01b038a166000908152600860205260409020602280549091908190839061115790615bb7565b61116292919061511d565b50600182018160010190805461117790615bb7565b61118292919061511d565b5060028281018054918301805460ff93841660ff1982168117835592546101009081900490941690930261ffff19909316909117919091179055600380830154908201556004808301549082015560058083018054918301916111e490615bb7565b6111ef92919061511d565b50600682018160060190805461120490615bb7565b61120f92919061511d565b505089516112259150600f9060208c01906151a8565b50604080516020810191829052600090819052611244916010916151a8565b50875161125890600e9060208b01906151a8565b5060408051808201909152600880825267149958d95a5d995960c21b6020909201918252611288916014916151a8565b506001600160a01b038a166000908152600660205260409020600c8054825463ffffffff91821663ffffffff1982168117855583546001600160401b031990921617600160201b9182900490921602178255600d805491929160018301919061080790615bb7565b816040516020016113019190615b9b565b60408051601f1981840301815282825280516020918201206001600160a01b038816600090815260068352929092209192611340926003019101615bf1565b604051602081830303815290604052805190602001201461136057600080fd5b600061136c8a88614d6c565b90508061138b5760405162461bcd60e51b815260040161047c90615cf8565b6001600160a01b038a1660009081526006602052604090208054600c805463ffffffff92831663ffffffff1982168117835584546001600160401b031990921617600160201b9182900490931602919091178155600182018054600d91906113f290615bb7565b6113fd92919061511d565b50600282018160020190805461141290615bb7565b61141d92919061511d565b50600382018160030190805461143290615bb7565b61143d92919061511d565b50600482018160040190805461145290615bb7565b61145d92919061511d565b50600582810154908201556006808301549082015560078083018054918301805460ff93841660ff1982168117835592546101009081900490941690930261ffff1990931690911791909117905560088083018054918301916114bf90615bb7565b6114ca92919061511d565b506009918201549101805460ff191660ff909216151591909117905588516114f99060229060208c01906151a8565b50875161150d9060239060208b01906151a8565b506024805460ff191660ff89161790554260255560408051808201909152600880825267149958d95a5d995960c21b6020909201918252611550916028916151a8565b506001600160a01b038a166000908152600860205260409020602280549091908190839061157d90615bb7565b61158892919061511d565b50600182018160010190805461159d90615bb7565b6115a892919061511d565b5060028281018054918301805460ff93841660ff1982168117835592546101009081900490941690930261ffff199093169091179190911790556003808301549082015560048083015490820155600580830180549183019161160a90615bb7565b61161592919061511d565b50600682018160060190805461162a90615bb7565b61163592919061511d565b5050895161164b9150600f9060208c01906151a8565b5060408051602081019182905260009081905261166a916010916151a8565b50875161167e90600e9060208b01906151a8565b5060408051808201909152600880825267149958d95a5d995960c21b60209092019182526116ae916014916151a8565b506001600160a01b038a166000908152600660205260409020600c8054825463ffffffff91821663ffffffff1982168117855583546001600160401b031990921617600160201b9182900490921602178255600d8054919291600183019190610d2290615bb7565b60008460405180604001604052806008815260200167506861726d61637960c01b8152508560018260405160200161174e9190615b9b565b604051602081830303815290604052805190602001206003836040516117749190615b9b565b90815260200160405180910390206040516020016117929190615bf1565b60405160208183030381529060405280519060200120146117b257600080fd5b8015611b6157816040516020016117c99190615b9b565b60408051601f1981840301815282825280516020918201206001600160a01b038816600090815260048352929092209192611805929101615bf1565b604051602081830303815290604052805190602001201461182557600080fd5b60006118318a88614d6c565b9050806118505760405162461bcd60e51b815260040161047c90615cf8565b6001600160a01b038a1660009081526006602052604090208054600c805463ffffffff92831663ffffffff1982168117835584546001600160401b031990921617600160201b9182900490931602919091178155600182018054600d91906118b790615bb7565b6118c292919061511d565b5060028201816002019080546118d790615bb7565b6118e292919061511d565b5060038201816003019080546118f790615bb7565b61190292919061511d565b50600482018160040190805461191790615bb7565b61192292919061511d565b50600582810154908201556006808301549082015560078083018054918301805460ff93841660ff1982168117835592546101009081900490941690930261ffff19909316909117919091179055600880830180549183019161198490615bb7565b61198f92919061511d565b506009918201549101805460ff191660ff909216151591909117905560408051808201909152600480825263444f4e4560e01b60209092019182526119d6916010916151a8565b5087516119ea90600e9060208b01906151a8565b5060408051808201909152600880825267149958d95a5d995960c21b6020909201918252611a1a916014916151a8565b508851611a2e90602f9060208c01906151a8565b508751611a429060309060208b01906151a8565b506031805460ff191660ff891617905560408051808201909152600880825267149958d95a5d995960c21b6020909201918252611a81916032916151a8565b50426033556001600160a01b038a166000908152600a60205260409020602f805490919081908390611ab290615bb7565b611abd92919061511d565b506001820181600101908054611ad290615bb7565b611add92919061511d565b50600282810154908201805460ff191660ff9092169190911790556003808301805491830191611b0c90615bb7565b611b1792919061511d565b506004918201549082015560408051808201825282815263444f4e4560e01b60208083019182526001600160a01b038f1660009081529490529190922091516112889291906151a8565b81604051602001611b729190615b9b565b60408051601f1981840301815282825280516020918201206001600160a01b038816600090815260068352929092209192611bb1926003019101615bf1565b6040516020818303038152906040528051906020012014611bd157600080fd5b6000611bdd8a88614d6c565b905080611bfc5760405162461bcd60e51b815260040161047c90615cf8565b6001600160a01b038a1660009081526006602052604090208054600c805463ffffffff92831663ffffffff1982168117835584546001600160401b031990921617600160201b9182900490931602919091178155600182018054600d9190611c6390615bb7565b611c6e92919061511d565b506002820181600201908054611c8390615bb7565b611c8e92919061511d565b506003820181600301908054611ca390615bb7565b611cae92919061511d565b506004820181600401908054611cc390615bb7565b611cce92919061511d565b50600582810154908201556006808301549082015560078083018054918301805460ff93841660ff1982168117835592546101009081900490941690930261ffff199093169091179190911790556008808301805491830191611d3090615bb7565b611d3b92919061511d565b506009918201549101805460ff191660ff909216151591909117905560408051808201909152600480825263444f4e4560e01b6020909201918252611d82916010916151a8565b508751611d9690600e9060208b01906151a8565b5060408051808201909152600880825267149958d95a5d995960c21b6020909201918252611dc6916014916151a8565b508851611dda90602f9060208c01906151a8565b508751611dee9060309060208b01906151a8565b506031805460ff191660ff891617905560408051808201909152600880825267149958d95a5d995960c21b6020909201918252611e2d916032916151a8565b50426033556001600160a01b038a166000908152600a60205260409020602f805490919081908390611e5e90615bb7565b611e6992919061511d565b506001820181600101908054611e7e90615bb7565b611e8992919061511d565b50600282810154908201805460ff191660ff9092169190911790556003808301805491830191611eb890615bb7565b611ec392919061511d565b506004918201549082015560408051808201825282815263444f4e4560e01b60208083019182526001600160a01b038f1660009081529490529190922091516116ae9291906151a8565b6040516420b236b4b760d91b6020820152819060250160405160208183030381529060405280519060200120600382604051611f499190615b9b565b9081526020016040518091039020604051602001611f679190615bf1565b6040516020818303038152906040528051906020012014611f8757600080fd5b6000600b84604051611f999190615b9b565b908152604080516020928190038301812081830190925260058082526420b236b4b760d91b93909101928352909250611fd591818401916151a8565b50600080546001600160a01b0319166001600160a01b038716179055604051600b90612002908590615b9b565b908152604051908190036020019020600061201d828261521c565b60018201805464ffffffffff1916905561203b60028301600061521c565b61204960038301600061521c565b61205760048301600061521c565b61206560058301600061521c565b50505050505050565b8051602081830181018051600b8252928201919093012091528054819061209490615bb7565b80601f01602080910402602001604051908101604052809291908181526020018280546120c090615bb7565b801561210d5780601f106120e25761010080835404028352916020019161210d565b820191906000526020600020905b8154815290600101906020018083116120f057829003601f168201915b505050506001830154600284018054939463ffffffff831694600160201b90930460ff1693509161213d90615bb7565b80601f016020809104026020016040519081016040528092919081815260200182805461216990615bb7565b80156121b65780601f1061218b576101008083540402835291602001916121b6565b820191906000526020600020905b81548152906001019060200180831161219957829003601f168201915b5050505050908060030180546121cb90615bb7565b80601f01602080910402602001604051908101604052809291908181526020018280546121f790615bb7565b80156122445780601f1061221957610100808354040283529160200191612244565b820191906000526020600020905b81548152906001019060200180831161222757829003601f168201915b50505050509080600401805461225990615bb7565b80601f016020809104026020016040519081016040528092919081815260200182805461228590615bb7565b80156122d25780601f106122a7576101008083540402835291602001916122d2565b820191906000526020600020905b8154815290600101906020018083116122b557829003601f168201915b5050505050908060050180546122e790615bb7565b80601f016020809104026020016040519081016040528092919081815260200182805461231390615bb7565b80156123605780601f1061233557610100808354040283529160200191612360565b820191906000526020600020905b81548152906001019060200180831161234357829003601f168201915b5050505050905087565b6002818154811061237a57600080fd5b90600052602060002001600091509050805461239590615bb7565b80601f01602080910402602001604051908101604052809291908181526020018280546123c190615bb7565b801561240e5780601f106123e35761010080835404028352916020019161240e565b820191906000526020600020905b8154815290600101906020018083116123f157829003601f168201915b505050505081565b6000836040518060400160405280600b81526020016a2234b9ba3934b13aba37b960a91b815250866000826040516020016124519190615b9b565b604051602081830303815290604052805190602001206003836040516124779190615b9b565b90815260200160405180910390206040516020016124959190615bf1565b60405160208183030381529060405280519060200120146124b557600080fd5b801561281157816040516020016124cc9190615b9b565b60408051601f1981840301815282825280516020918201206001600160a01b038816600090815260048352929092209192612508929101615bf1565b604051602081830303815290604052805190602001201461252857600080fd5b60006125348989614d6c565b9050806125535760405162461bcd60e51b815260040161047c90615c8c565b6001600160a01b03891660009081526006602052604090208054600c805463ffffffff92831663ffffffff1982168117835584546001600160401b031990921617600160201b9182900490931602919091178155600182018054600d91906125ba90615bb7565b6125c592919061511d565b5060028201816002019080546125da90615bb7565b6125e592919061511d565b5060038201816003019080546125fa90615bb7565b61260592919061511d565b50600482018160040190805461261a90615bb7565b61262592919061511d565b50600582810154908201556006808301549082015560078083018054918301805460ff93841660ff1982168117835592546101009081900490941690930261ffff19909316909117919091179055600880830180549183019161268790615bb7565b61269292919061511d565b506009918201549101805460ff191660ff90921615159190911790556040805180820190915260078082526614da1a5c1c195960ca1b60209092019182526126dc916014916151a8565b5086516126f09060109060208a01906151a8565b506024805461ff00191661010060ff8b1602179055426026556040805180820190915260078082526614da1a5c1c195960ca1b6020909201918252612737916028916151a8565b506001600160a01b0389166000908152600860205260409020602280549091908190839061276490615bb7565b61276f92919061511d565b50600182018160010190805461278490615bb7565b61278f92919061511d565b5060028281018054918301805460ff93841660ff1982168117835592546101009081900490941690930261ffff19909316909117919091179055600380830154908201556004808301549082015560058083018054918301916127f190615bb7565b6127fc92919061511d565b50600682018160060190805461076890615bb7565b816040516020016128229190615b9b565b60408051601f1981840301815282825280516020918201206001600160a01b038816600090815260068352929092209192612861926003019101615bf1565b604051602081830303815290604052805190602001201461288157600080fd5b600061288d8989614d6c565b9050806128ac5760405162461bcd60e51b815260040161047c90615c8c565b6001600160a01b03891660009081526006602052604090208054600c805463ffffffff92831663ffffffff1982168117835584546001600160401b031990921617600160201b9182900490931602919091178155600182018054600d919061291390615bb7565b61291e92919061511d565b50600282018160020190805461293390615bb7565b61293e92919061511d565b50600382018160030190805461295390615bb7565b61295e92919061511d565b50600482018160040190805461297390615bb7565b61297e92919061511d565b50600582810154908201556006808301549082015560078083018054918301805460ff93841660ff1982168117835592546101009081900490941690930261ffff1990931690911791909117905560088083018054918301916129e090615bb7565b6129eb92919061511d565b506009918201549101805460ff191660ff90921615159190911790556040805180820190915260078082526614da1a5c1c195960ca1b6020909201918252612a35916014916151a8565b508651612a499060109060208a01906151a8565b506024805461ff00191661010060ff8b1602179055426026556040805180820190915260078082526614da1a5c1c195960ca1b6020909201918252612a90916028916151a8565b506001600160a01b03891660009081526008602052604090206022805490919081908390612abd90615bb7565b612ac892919061511d565b506001820181600101908054612add90615bb7565b612ae892919061511d565b5060028281018054918301805460ff93841660ff1982168117835592546101009081900490941690930261ffff1990931690911791909117905560038083015490820155600480830154908201556005808301805491830191612b4a90615bb7565b612b5592919061511d565b506006820181600601908054610c8390615bb7565b600960205260009081526040902080548190612b8590615bb7565b80601f0160208091040260200160405190810160405280929190818152602001828054612bb190615bb7565b8015612bfe5780601f10612bd357610100808354040283529160200191612bfe565b820191906000526020600020905b815481529060010190602001808311612be157829003601f168201915b505050505090806001018054612c1390615bb7565b80601f0160208091040260200160405190810160405280929190818152602001828054612c3f90615bb7565b8015612c8c5780601f10612c6157610100808354040283529160200191612c8c565b820191906000526020600020905b815481529060010190602001808311612c6f57829003601f168201915b5050506002840154600385015460048601546005870180549697600085810b98610100909604900b965092945090926122e790615bb7565b600087604051602001612ce2906420b236b4b760d91b815260050190565b60405160208183030381529060405280519060200120600382604051612d089190615b9b565b9081526020016040518091039020604051602001612d269190615bf1565b6040516020818303038152906040528051906020012014612d4657600080fd5b600586604051612d569190615b9b565b9081526040519081900360200190205460ff1615612daf5760405162461bcd60e51b81526020600482015260166024820152753ab9b2b93730b6b29030b63932b0b23c903a30b5b2b760511b604482015260640161047c565b8751612dc29060169060208b01906151a8565b506017805463ffffffff191663ffffffff89161790558551612deb9060189060208901906151a8565b508451612dff9060199060208801906151a8565b508351612e1390601a9060208701906151a8565b508251612e2790601b9060208601906151a8565b506017805464ff000000001916600160201b179055604051601690600b90612e50908990615b9b565b908152604051908190036020019020815481908390612e6e90615bb7565b612e7992919061511d565b5060018281018054918301805463ffffffff19811663ffffffff9094169384178255915460ff600160201b918290041615150264ffffffffff199092169092171790556002808301805491830191612ed090615bb7565b612edb92919061511d565b506003820181600301908054612ef090615bb7565b612efb92919061511d565b506004820181600401908054612f1090615bb7565b612f1b92919061511d565b506005820181600501908054612f3090615bb7565b612f3b92919061511d565b5090505082600387604051612f509190615b9b565b90815260200160405180910390209080519060200190612f719291906151a8565b50600280546001810182556000919091528651612fb5917f405787fa12a823e0f2b7631cc41b3ba8828b3321ca811111fa75cd3aa3bb5ace019060208901906151a8565b506001600587604051612fc89190615b9b565b908152604051908190036020019020805491151560ff199092169190911790556001915050979650505050505050565b60086020526000908152604090208054819061301390615bb7565b80601f016020809104026020016040519081016040528092919081815260200182805461303f90615bb7565b801561308c5780601f106130615761010080835404028352916020019161308c565b820191906000526020600020905b81548152906001019060200180831161306f57829003601f168201915b5050505050908060010180546130a190615bb7565b80601f01602080910402602001604051908101604052809291908181526020018280546130cd90615bb7565b801561311a5780601f106130ef5761010080835404028352916020019161311a565b820191906000526020600020905b8154815290600101906020018083116130fd57829003601f168201915b5050506002840154600385015460048601546005870180549697600085810b98610100909604900b9650929450909261315290615bb7565b80601f016020809104026020016040519081016040528092919081815260200182805461317e90615bb7565b80156131cb5780601f106131a0576101008083540402835291602001916131cb565b820191906000526020600020905b8154815290600101906020018083116131ae57829003601f168201915b5050505050908060060180546131e090615bb7565b80601f016020809104026020016040519081016040528092919081815260200182805461320c90615bb7565b80156132595780601f1061322e57610100808354040283529160200191613259565b820191906000526020600020905b81548152906001019060200180831161323c57829003601f168201915b5050505050905088565b600a6020526000908152604090208054819061327e90615bb7565b80601f01602080910402602001604051908101604052809291908181526020018280546132aa90615bb7565b80156132f75780601f106132cc576101008083540402835291602001916132f7565b820191906000526020600020905b8154815290600101906020018083116132da57829003601f168201915b50505050509080600101805461330c90615bb7565b80601f016020809104026020016040519081016040528092919081815260200182805461333890615bb7565b80156133855780601f1061335a57610100808354040283529160200191613385565b820191906000526020600020905b81548152906001019060200180831161336857829003601f168201915b5050505050908060020160009054906101000a900460000b908060030180546133ad90615bb7565b80601f01602080910402602001604051908101604052809291908181526020018280546133d990615bb7565b80156134265780601f106133fb57610100808354040283529160200191613426565b820191906000526020600020905b81548152906001019060200180831161340957829003601f168201915b5050505050908060040154905085565b6000846040518060400160405280600a8152602001692bb437b632b9b0b632b960b11b815250856001826040516020016134709190615b9b565b604051602081830303815290604052805190602001206003836040516134969190615b9b565b90815260200160405180910390206040516020016134b49190615bf1565b60405160208183030381529060405280519060200120146134d457600080fd5b80156137f157816040516020016134eb9190615b9b565b60408051601f1981840301815282825280516020918201206001600160a01b038816600090815260048352929092209192613527929101615bf1565b604051602081830303815290604052805190602001201461354757600080fd5b60006135538a88614d6c565b9050806135725760405162461bcd60e51b815260040161047c90615cf8565b6001600160a01b038a1660009081526006602052604090208054600c805463ffffffff92831663ffffffff1982168117835584546001600160401b031990921617600160201b9182900490931602919091178155600182018054600d91906135d990615bb7565b6135e492919061511d565b5060028201816002019080546135f990615bb7565b61360492919061511d565b50600382018160030190805461361990615bb7565b61362492919061511d565b50600482018160040190805461363990615bb7565b61364492919061511d565b50600582810154908201556006808301549082015560078083018054918301805460ff93841660ff1982168117835592546101009081900490941690930261ffff1990931690911791909117905560088083018054918301916136a690615bb7565b6136b192919061511d565b506009918201549101805460ff191660ff909216151591909117905588516136e09060299060208c01906151a8565b5087516136f490602a9060208b01906151a8565b50602b805460ff191660ff891617905542602c5560408051808201909152600880825267149958d95a5d995960c21b602090920191825261373791602e916151a8565b506001600160a01b038a166000908152600960205260409020602980549091908190839061376490615bb7565b61376f92919061511d565b50600182018160010190805461378490615bb7565b61378f92919061511d565b5060028281018054918301805460ff93841660ff1982168117835592546101009081900490941690930261ffff199093169091179190911790556003808301549082015560048083015490820155600580830180549183019161120490615bb7565b816040516020016138029190615b9b565b60408051601f1981840301815282825280516020918201206001600160a01b038816600090815260068352929092209192613841926003019101615bf1565b604051602081830303815290604052805190602001201461386157600080fd5b600061386d8a88614d6c565b90508061388c5760405162461bcd60e51b815260040161047c90615cf8565b6001600160a01b038a1660009081526006602052604090208054600c805463ffffffff92831663ffffffff1982168117835584546001600160401b031990921617600160201b9182900490931602919091178155600182018054600d91906138f390615bb7565b6138fe92919061511d565b50600282018160020190805461391390615bb7565b61391e92919061511d565b50600382018160030190805461393390615bb7565b61393e92919061511d565b50600482018160040190805461395390615bb7565b61395e92919061511d565b50600582810154908201556006808301549082015560078083018054918301805460ff93841660ff1982168117835592546101009081900490941690930261ffff1990931690911791909117905560088083018054918301916139c090615bb7565b6139cb92919061511d565b506009918201549101805460ff191660ff909216151591909117905588516139fa9060299060208c01906151a8565b508751613a0e90602a9060208b01906151a8565b50602b805460ff191660ff891617905542602c5560408051808201909152600880825267149958d95a5d995960c21b6020909201918252613a5191602e916151a8565b506001600160a01b038a1660009081526009602052604090206029805490919081908390613a7e90615bb7565b613a8992919061511d565b506001820181600101908054613a9e90615bb7565b613aa992919061511d565b5060028281018054918301805460ff93841660ff1982168117835592546101009081900490941690930261ffff199093169091179190911790556003808301549082015560048083015490820155600580830180549183019161162a90615bb7565b6040516b26b0b73ab330b1ba3ab932b960a11b6020820152600090602c0160405160208183030381529060405280519060200120600386604051613b4f9190615b9b565b9081526020016040518091039020604051602001613b6d9190615bf1565b6040516020818303038152906040528051906020012014613b8d57600080fd5b6000613b998784614d6c565b905080613bb85760405162461bcd60e51b815260040161047c90615c8c565b6001600160a01b03871660009081526006602052604090208054600c805463ffffffff92831663ffffffff1982168117835584546001600160401b031990921617600160201b9182900490931602919091178155600182018054600d9190613c1f90615bb7565b613c2a92919061511d565b506002820181600201908054613c3f90615bb7565b613c4a92919061511d565b506003820181600301908054613c5f90615bb7565b613c6a92919061511d565b506004820181600401908054613c7f90615bb7565b613c8a92919061511d565b50600582810154908201556006808301549082015560078083018054918301805460ff93841660ff1982168117835592546101009081900490941690930261ffff199093169091179190911790556008808301805491830191613cec90615bb7565b613cf792919061511d565b506009918201549101805460ff191660ff90921615159190911790556040805180820190915260078082526614da1a5c1c195960ca1b6020909201918252613d41916014916151a8565b508351613d559060109060208701906151a8565b508551613d6990601c9060208901906151a8565b508451613d7d90601d9060208801906151a8565b508351613d9190601e9060208701906151a8565b50601f805460ff191660ff85161790554260209081556040805180820190915260078082526614da1a5c1c195960ca1b91909201908152613dd591602191906151a8565b506001600160a01b0387166000908152600760205260409020601c805490919081908390613e0290615bb7565b613e0d92919061511d565b506001820181600101908054613e2290615bb7565b613e2d92919061511d565b506002820181600201908054613e4290615bb7565b613e4d92919061511d565b50600382810154908201805460ff191660ff909216919091179055600480830154908201556005808301805491830191613e8690615bb7565b613e9192919061511d565b5050506001600160a01b0387166000908152600660205260409020600c8054825463ffffffff91821663ffffffff1982168117855583546001600160401b031990921617600160201b9182900490921602178255600d8054919291600183019190613efb90615bb7565b613f0692919061511d565b506002820181600201908054613f1b90615bb7565b613f2692919061511d565b506003820181600301908054613f3b90615bb7565b613f4692919061511d565b506004820181600401908054613f5b90615bb7565b613f6692919061511d565b50600582810154908201556006808301549082015560078083018054918301805460ff93841660ff1982168117835592546101009081900490941690930261ffff199093169091179190911790556008808301805491830191613fc890615bb7565b613fd392919061511d565b506009918201549101805460ff191660ff90921615159190911790556001600160a01b03871660009081526004602090815260409091208551614018928701906151a8565b506001979650505050505050565b600080600b846040516140399190615b9b565b90815260200160405180910390206040518060e001604052908160008201805461406290615bb7565b80601f016020809104026020016040519081016040528092919081815260200182805461408e90615bb7565b80156140db5780601f106140b0576101008083540402835291602001916140db565b820191906000526020600020905b8154815290600101906020018083116140be57829003601f168201915b5050509183525050600182015463ffffffff81166020830152600160201b900460ff161515604082015260028201805460609092019161411a90615bb7565b80601f016020809104026020016040519081016040528092919081815260200182805461414690615bb7565b80156141935780601f1061416857610100808354040283529160200191614193565b820191906000526020600020905b81548152906001019060200180831161417657829003601f168201915b505050505081526020016003820180546141ac90615bb7565b80601f01602080910402602001604051908101604052809291908181526020018280546141d890615bb7565b80156142255780601f106141fa57610100808354040283529160200191614225565b820191906000526020600020905b81548152906001019060200180831161420857829003601f168201915b5050505050815260200160048201805461423e90615bb7565b80601f016020809104026020016040519081016040528092919081815260200182805461426a90615bb7565b80156142b75780601f1061428c576101008083540402835291602001916142b7565b820191906000526020600020905b81548152906001019060200180831161429a57829003601f168201915b505050505081526020016005820180546142d090615bb7565b80601f01602080910402602001604051908101604052809291908181526020018280546142fc90615bb7565b80156143495780601f1061431e57610100808354040283529160200191614349565b820191906000526020600020905b81548152906001019060200180831161432c57829003601f168201915b5050505050815250509050836040516020016143659190615b9b565b6040516020818303038152906040528051906020012081606001516040516020016143909190615b9b565b604051602081830303815290604052805190602001200361441657826040516020016143bc9190615b9b565b6040516020818303038152906040528051906020012081608001516040516020016143e79190615b9b565b604051602081830303815290604052805190602001200361440c57600191505061441c565b600091505061441c565b60009150505b92915050565b60076020526000908152604090208054819061443d90615bb7565b80601f016020809104026020016040519081016040528092919081815260200182805461446990615bb7565b80156144b65780601f1061448b576101008083540402835291602001916144b6565b820191906000526020600020905b81548152906001019060200180831161449957829003601f168201915b5050505050908060010180546144cb90615bb7565b80601f01602080910402602001604051908101604052809291908181526020018280546144f790615bb7565b80156145445780601f1061451957610100808354040283529160200191614544565b820191906000526020600020905b81548152906001019060200180831161452757829003601f168201915b50505050509080600201805461455990615bb7565b80601f016020809104026020016040519081016040528092919081815260200182805461458590615bb7565b80156145d25780601f106145a7576101008083540402835291602001916145d2565b820191906000526020600020905b8154815290600101906020018083116145b557829003601f168201915b5050505050908060030160009054906101000a900460000b9080600401549080600501805461460090615bb7565b80601f016020809104026020016040519081016040528092919081815260200182805461462c90615bb7565b80156146795780601f1061464e57610100808354040283529160200191614679565b820191906000526020600020905b81548152906001019060200180831161465c57829003601f168201915b5050505050905086565b60008a6040516020016146a8906b26b0b73ab330b1ba3ab932b960a11b8152600c0190565b604051602081830303815290604052805190602001206003826040516146ce9190615b9b565b90815260200160405180910390206040516020016146ec9190615bf1565b604051602081830303815290604052805190602001201461470c57600080fd5b6001600160a01b0383166147b1578360000b8560000b131561472d57600080fd5b6000874260405160200161474b929190918252602082015260400190565b60408051808303601f1901815291905280516020909101206001805480820182556000919091527fb10e2d527612073b26eecdfd717e6a320cf44b4afac2b0732d9fcbe2b7fa0cf60180546001600160a01b0319166001600160a01b0383161790559350505b600c805463ffffffff8c8116600160201b026001600160401b0319909216908e161717905588516147e990600d9060208c01906151a8565b5087516147fd90600e9060208b01906151a8565b508b5161481190600f9060208f01906151a8565b50601187905560128690556013805460ff8681166101000261ffff199092169088161717905560408051808201909152600c8082526b13585b9d599858dd1d5c995960a21b602090920191825261486a916014916151a8565b50604080516020810191829052600090819052614889916010916151a8565b5060408051602080820180845260008084526001600160a01b0388168152600490925292902090516148bb92906151a8565b506001600160a01b0383166000908152600660205260409020600c8054825463ffffffff91821663ffffffff1982168117855583546001600160401b031990921617600160201b9182900490921602178255600d805491929160018301919061492390615bb7565b61492e92919061511d565b50600282018160020190805461494390615bb7565b61494e92919061511d565b50600382018160030190805461496390615bb7565b61496e92919061511d565b50600482018160040190805461498390615bb7565b61498e92919061511d565b50600582810154908201556006808301549082015560078083018054918301805460ff93841660ff1982168117835592546101009081900490941690930261ffff1990931690911791909117905560088083018054918301916149f090615bb7565b6149fb92919061511d565b506009918201549101805460ff191660ff909216151591909117905550909a9950505050505050505050565b60018181548110614a3757600080fd5b6000918252602090912001546001600160a01b0316905081565b6006602052600090815260409020805460018201805463ffffffff80841694600160201b90940416929190614a8590615bb7565b80601f0160208091040260200160405190810160405280929190818152602001828054614ab190615bb7565b8015614afe5780601f10614ad357610100808354040283529160200191614afe565b820191906000526020600020905b815481529060010190602001808311614ae157829003601f168201915b505050505090806002018054614b1390615bb7565b80601f0160208091040260200160405190810160405280929190818152602001828054614b3f90615bb7565b8015614b8c5780601f10614b6157610100808354040283529160200191614b8c565b820191906000526020600020905b815481529060010190602001808311614b6f57829003601f168201915b505050505090806003018054614ba190615bb7565b80601f0160208091040260200160405190810160405280929190818152602001828054614bcd90615bb7565b8015614c1a5780601f10614bef57610100808354040283529160200191614c1a565b820191906000526020600020905b815481529060010190602001808311614bfd57829003601f168201915b505050505090806004018054614c2f90615bb7565b80601f0160208091040260200160405190810160405280929190818152602001828054614c5b90615bb7565b8015614ca85780601f10614c7d57610100808354040283529160200191614ca8565b820191906000526020600020905b815481529060010190602001808311614c8b57829003601f168201915b5050505060058301546006840154600785015460088601805495969395929450600082810b94610100909304900b92614ce090615bb7565b80601f0160208091040260200160405190810160405280929190818152602001828054614d0c90615bb7565b8015614d595780601f10614d2e57610100808354040283529160200191614d59565b820191906000526020600020905b815481529060010190602001808311614d3c57829003601f168201915b5050506009909301549192505060ff168c565b6001600160a01b03821660009081526006602052604081206009015460ff1615614d9557600080fd5b6001600160a01b03831660009081526006602052604090208054600c805463ffffffff92831663ffffffff1982168117835584546001600160401b031990921617600160201b9182900490931602919091178155600182018054600d9190614dfc90615bb7565b614e0792919061511d565b506002820181600201908054614e1c90615bb7565b614e2792919061511d565b506003820181600301908054614e3c90615bb7565b614e4792919061511d565b506004820181600401908054614e5c90615bb7565b614e6792919061511d565b50600582810154908201556006808301549082015560078083018054918301805460ff93841660ff1982168117835592546101009081900490941690930261ffff199093169091179190911790556008808301805491830191614ec990615bb7565b614ed492919061511d565b506009918201549101805460ff1990811660ff9384161515179091556013805490911691841691909117908190556101009004600090810b9083900b13156150cb576015805460ff1916600117905560408051808201909152601a8082527f457863656564656420696465616c2074656d70657261747572650000000000006020909201918252614f67916014916151a8565b506001600160a01b0383166000908152600660205260409020600c8054825463ffffffff91821663ffffffff1982168117855583546001600160401b031990921617600160201b9182900490921602178255600d8054919291600183019190614fcf90615bb7565b614fda92919061511d565b506002820181600201908054614fef90615bb7565b614ffa92919061511d565b50600382018160030190805461500f90615bb7565b61501a92919061511d565b50600482018160040190805461502f90615bb7565b61503a92919061511d565b50600582810154908201556006808301549082015560078083018054918301805460ff93841660ff1982168117835592546101009081900490941690930261ffff19909316909117919091179055600880830180549183019161509c90615bb7565b6150a792919061511d565b506009918201549101805460ff191660ff909216151591909117905550600061441c565b6012544210615114576015805460ff1916600117905560408051808201909152600c8082526b111c9d59c8115e1c1a5c995960a21b6020909201918252614f67916014916151a8565b50600192915050565b82805461512990615bb7565b90600052602060002090601f01602090048101928261514b5760008555615198565b82601f1061515c5780548555615198565b8280016001018555821561519857600052602060002091601f016020900482015b8281111561519857825482559160010191906001019061517d565b506151a4929150615259565b5090565b8280546151b490615bb7565b90600052602060002090601f0160209004810192826151d65760008555615198565b82601f106151ef57805160ff1916838001178555615198565b82800160010185558215615198579182015b82811115615198578251825591602001919060010190615201565b50805461522890615bb7565b6000825580601f10615238575050565b601f0160209004906000526020600020908101906152569190615259565b50565b5b808211156151a4576000815560010161525a565b634e487b7160e01b600052604160045260246000fd5b600082601f83011261529557600080fd5b813567ffffffffffffffff808211156152b0576152b061526e565b604051601f8301601f19908116603f011681019082821181831017156152d8576152d861526e565b816040528381528660208588010111156152f157600080fd5b836020870160208301376000602085830101528094505050505092915050565b80356001600160a01b038116811461532857600080fd5b919050565b8035600081900b811461532857600080fd5b6000806000806080858703121561535557600080fd5b843567ffffffffffffffff8082111561536d57600080fd5b61537988838901615284565b955061538760208801615311565b94506153956040880161532d565b935060608701359150808211156153ab57600080fd5b506153b887828801615284565b91505092959194509250565b600080600080608085870312156153da57600080fd5b6153e385615311565b9350602085013567ffffffffffffffff8082111561540057600080fd5b61540c88838901615284565b9450604087013591508082111561542257600080fd5b5061542f87828801615284565b92505061543e6060860161532d565b905092959194509250565b60008060006060848603121561545e57600080fd5b61546784615311565b9250602084013567ffffffffffffffff8082111561548457600080fd5b61549087838801615284565b935060408601359150808211156154a657600080fd5b506154b386828701615284565b9150509250925092565b6000602082840312156154cf57600080fd5b813567ffffffffffffffff8111156154e657600080fd5b6154f284828501615284565b949350505050565b60005b838110156155155781810151838201526020016154fd565b83811115615524576000848401525b50505050565b600081518084526155428160208601602086016154fa565b601f01601f19169290920160200192915050565b60e08152600061556960e083018a61552a565b63ffffffff891660208401528715156040840152828103606084015261558f818861552a565b905082810360808401526155a3818761552a565b905082810360a08401526155b7818661552a565b905082810360c08401526155cb818561552a565b9a9950505050505050505050565b6000602082840312156155eb57600080fd5b5035919050565b602081526000615605602083018461552a565b9392505050565b60006020828403121561561e57600080fd5b61560582615311565b60e08152600061563a60e083018a61552a565b828103602084015261564c818a61552a565b90508760000b60408401528660000b60608401528560808401528460a084015282810360c08401526155cb818561552a565b803563ffffffff8116811461532857600080fd5b600080600080600080600060e0888a0312156156ad57600080fd5b873567ffffffffffffffff808211156156c557600080fd5b6156d18b838c01615284565b985060208a01359150808211156156e757600080fd5b6156f38b838c01615284565b975061570160408b0161567e565b965060608a013591508082111561571757600080fd5b6157238b838c01615284565b955060808a013591508082111561573957600080fd5b6157458b838c01615284565b945060a08a013591508082111561575b57600080fd5b6157678b838c01615284565b935060c08a013591508082111561577d57600080fd5b5061578a8a828b01615284565b91505092959891949750929550565b60006101008083526157ad8184018c61552a565b905082810360208401526157c1818b61552a565b90508860000b60408401528760000b60608401528660808401528560a084015282810360c08401526157f3818661552a565b905082810360e0840152615807818561552a565b9b9a5050505050505050505050565b60a08152600061582960a083018861552a565b828103602084015261583b818861552a565b90508560000b60408401528281036060840152615858818661552a565b9150508260808301529695505050505050565b600080600080600060a0868803121561588357600080fd5b61588c86615311565b9450602086013567ffffffffffffffff808211156158a957600080fd5b6158b589838a01615284565b955060408801359150808211156158cb57600080fd5b6158d789838a01615284565b945060608801359150808211156158ed57600080fd5b506158fa88828901615284565b9250506159096080870161532d565b90509295509295909350565b6000806040838503121561592857600080fd5b823567ffffffffffffffff8082111561594057600080fd5b61594c86838701615284565b9350602085013591508082111561596257600080fd5b5061596f85828601615284565b9150509250929050565b60c08152600061598c60c083018961552a565b828103602084015261599e818961552a565b905082810360408401526159b2818861552a565b90508560000b606084015284608084015282810360a08401526159d5818561552a565b9998505050505050505050565b6000806000806000806000806000806101408b8d031215615a0257600080fd5b8a3567ffffffffffffffff80821115615a1a57600080fd5b615a268e838f01615284565b9b50615a3460208e0161567e565b9a50615a4260408e0161567e565b995060608d0135915080821115615a5857600080fd5b615a648e838f01615284565b985060808d0135915080821115615a7a57600080fd5b50615a878d828e01615284565b96505060a08b0135945060c08b01359350615aa460e08c0161532d565b9250615ab36101008c0161532d565b9150615ac26101208c01615311565b90509295989b9194979a5092959850565b63ffffffff8d811682528c1660208201526000610180806040840152615afb8184018e61552a565b90508281036060840152615b0f818d61552a565b90508281036080840152615b23818c61552a565b905082810360a0840152615b37818b61552a565b90508860c08401528760e0840152615b5561010084018860000b9052565b615b6561012084018760000b9052565b828103610140840152615b78818661552a565b915050615b8a61016083018415159052565b9d9c50505050505050505050505050565b60008251615bad8184602087016154fa565b9190910192915050565b600181811c90821680615bcb57607f821691505b602082108103615beb57634e487b7160e01b600052602260045260246000fd5b50919050565b600080835481600182811c915080831680615c0d57607f831692505b60208084108203615c2c57634e487b7160e01b86526022600452602486fd5b818015615c405760018114615c5157615c7e565b60ff19861689528489019650615c7e565b60008a81526020902060005b86811015615c765781548b820152908501908301615c5d565b505084890196505b509498975050505050505050565b60208082526046908201527f43616e6e6f7420736869702074686520447275672c205468697320447275672060408201527f4569746865722065787069726564206f722065786365656465642054656d706160608201526572617475726560d01b608082015260a00190565b6020808252605f908201527f546869732044727567204569746865722065787069726564206f72206578636560408201527f656465642054656d70617261747572652c20706c656173652073746f7265206960608201527f7420696e20796f7572207768617265686f75736520666f722072657475726e00608082015260a0019056fea2646970667358221220050bfa8e53f90eed1f6a53a1644f7a02a5d082fe13e9172ba6f9f9ef8a4bba3364736f6c634300080d0033",
  "immutableReferences": {},
  "source": "// SPDX-License-Identifier: UNLICENSED\npragma solidity ^0.8.2;\n\ncontract PharmaSupplyChain{\n\naddress public AdminAddress;\n    constructor(string memory _Name,\n                     uint32 _ContactNo,\n                     string memory _UserName,\n                     string memory _UserPassword,\n                     string memory _Email\n                    ) {\n                        AdminAddress=msg.sender;\n       UserDetail.Name =_Name;\n        UserDetail.ContactNo = _ContactNo;\n        UserDetail.UserName = _UserName;\n         UserDetail.Password = _UserPassword;\n        UserDetail.Email = _Email;\n        UserDetail.Role =\"Admin\";\n        UserDetail.IsActive = true;\n        /*store data into mapping*/\n        BatchUserDetails[_UserName] = UserDetail;\n        userRole[_UserName] = \"Admin\";\n        UserNameList.push(_UserName);\n        isAutherised[_UserName]= true;\n                    }\n    address[] public DrugKeyList;\n    string[] public UserNameList;\n  mapping(string => string)  userRole;\n  mapping (address => string) nextOwner;\n  mapping(string => bool) isAutherised;\n\n\n    struct User{\n        string Name;\n        uint32 ContactNo;\n        bool IsActive;\n        string UserName;\n        string Password;\n        string Email;\n        string Role;\n     }\n\n\n      struct  Drug {\n        uint32 DrugID;\n        uint32 BatchID;\n        string DrugName;\n        string Currentlocation;\n        string CurrentproductOwner;\n        string NextOwner;\n        uint MfgTimeStamp;\n        uint ExpTimeStamp;\n        int8  CurrentTemperature;\n        int8 IdealTemperature;\n        string Status;\n        bool IsBad;\n    }\n\n struct Manufacturer{\n        string ManufacturerUserName;\n        string Location;\n        string ExporterUserName;\n        int8 ExportingTemparature;\n        uint256 ExportingDateTime;\n        string DrugStatus;\n    }\n\n    struct distributor{\n        string DistributorUserName;\n        string Location;\n        int8 ImportingTemparature;\n        int8 ExportingTemparature;\n        uint256 ImportingDateTime;\n        uint256 ExportingDateTime;\n        string ExporterUserName;\n        string DrugStatus;\n    }\n\n\n    struct Wholesaler{\n        string WholeSalerUserName;\n        string Location;\n        int8 ImportingTemparature;\n        int8 ExportingTemparature;\n        uint256 ImportingDateTime;\n        uint256 ExportingDateTime;\n        string DrugStatus;\n    }\n\n    struct Pharmacy{\n        string PharmacyName;\n        string Location;\n        int8 ImportingTemparature;\n        string DrugStatus;\n        uint256 ImportingDateTime;\n    }\n\n\n     mapping(address => Drug) public BatchDrugDetails;\n    mapping(address => Manufacturer) public BatchManufactureringDetails;\n    mapping(address =>distributor) public  BatchdistributorDetails;\n    mapping(address =>Wholesaler) public BatchWholesalerDetails;\n    mapping(address =>Pharmacy) public BatchPharmacyDetails;\n\n    mapping(string =>User) public BatchUserDetails;\n\n        Drug DrugDetails;\n        User UserDetail;\n        Manufacturer ManufacturerDetails;\n        distributor DistributorDetails;\n        Wholesaler WholesalerDetails;\n        Pharmacy PharmacyDetails;\n\n\n//   function getDrugKeyList() public view returns(address[] memory){\n//         return DrugKeyList;\n//     }\n\n\n    // function getUserNameList() public view returns(string[] memory){\n    //     return UserNameList;\n    // }\n\n\n\n\n    function setUser(string memory ThisUser,\n                    string memory _Name,\n                     uint32 _ContactNo,\n                     string memory _UserName,\n                     string memory _UserPassword,\n                     string memory _Email,\n                     string memory _Role) public onlyAdmin(ThisUser) returns(bool){\n                         require(!isAutherised[_UserName],\"username already taken\");\n        /*store data into struct*/\n        UserDetail.Name =_Name;\n        UserDetail.ContactNo = _ContactNo;\n        UserDetail.UserName = _UserName;\n         UserDetail.Password = _UserPassword;\n        UserDetail.Email = _Email;\n        UserDetail.Role =_Role;\n        UserDetail.IsActive = true;\n        /*store data into mapping*/\n        BatchUserDetails[_UserName] = UserDetail;\n        userRole[_UserName] = _Role;\n        UserNameList.push(_UserName);\n        isAutherised[_UserName]= true;\n\n        return true;\n    }  \n\n\n\n    function addDrugDetails(\n        string memory ThisUser,\n        uint32 _DrugID,\n        uint32 _BatchID,\n        string memory _DrugName,\n        string memory _Currentlocation,\n        uint _MfgTimeStamp,\n        uint _ExpTimeStamp,\n        int8  _CurrentTemperature,\n        int8 _IdealTemperature,\n        address _SerialNumber\n     ) public onlyManufacturer(ThisUser) returns(address){\n         if(_SerialNumber == address(0)){\n         require(_CurrentTemperature<=_IdealTemperature);\n         uint tmpData = uint(keccak256(abi.encodePacked(_MfgTimeStamp, block.timestamp )));\n         _SerialNumber = address(uint160(tmpData));\n         DrugKeyList.push(_SerialNumber);\n         }\n\n        DrugDetails.DrugID = _DrugID;\n        DrugDetails.BatchID = _BatchID;\n        DrugDetails.DrugName = _DrugName;\n        DrugDetails.Currentlocation = _Currentlocation;\n        DrugDetails.CurrentproductOwner = ThisUser;\n        DrugDetails.MfgTimeStamp = _MfgTimeStamp;\n        DrugDetails.ExpTimeStamp = _ExpTimeStamp;\n        DrugDetails.CurrentTemperature = _CurrentTemperature;\n        DrugDetails.IdealTemperature = _IdealTemperature;\n        DrugDetails.Status = \"Manufactured\";\n        DrugDetails.NextOwner = \"\";\n        nextOwner[_SerialNumber] = \"\";\n        BatchDrugDetails[_SerialNumber] = DrugDetails;\n        return _SerialNumber;\n    }\n\n\n \n\n \n    function moveFromManufacturer(address _SerialNumber,\n                             string memory _ManufacturerUserName,\n                             string memory _Location,\n                             string memory  _DistributorUserName,\n                             int8  _ExportingTemparature\n                             )public  returns(bool){   \n                require(keccak256(abi.encodePacked(userRole[_ManufacturerUserName])) == keccak256(abi.encodePacked(\"Manufacturer\")));\n                bool good =  isBad(_SerialNumber,_ExportingTemparature);\n                require(good,\"Cannot ship the Drug, This Drug Either expired or exceeded Temparature\");\n          \n                DrugDetails = BatchDrugDetails[_SerialNumber]; \n                         \n                     DrugDetails.Status = \"Shipped\";   \n                     DrugDetails.NextOwner = _DistributorUserName;    \n         ManufacturerDetails.ManufacturerUserName = _ManufacturerUserName;\n         ManufacturerDetails.Location = _Location;\n         ManufacturerDetails.ExporterUserName =_DistributorUserName ;\n         ManufacturerDetails.ExportingTemparature = _ExportingTemparature;\n         ManufacturerDetails.ExportingDateTime = block.timestamp;\n         ManufacturerDetails.DrugStatus = \"Shipped\";\n         BatchManufactureringDetails[_SerialNumber] = ManufacturerDetails;\n         BatchDrugDetails[_SerialNumber] = DrugDetails;\n          nextOwner[_SerialNumber] = _DistributorUserName;\n         return true;\n        }\n\n\n\n\n \n\n\n        function distributorReceving(\n                                     address _SerialNumber,\n                                     string memory _DistributorUserName,\n                                     string memory _Location,\n                                     int8 _ImportingTemparature) \n                                     public isValidPerformer(_SerialNumber,\"Distributor\",_DistributorUserName,true) returns(bool){\n            bool good =  isBad(_SerialNumber,_ImportingTemparature);\n           require(good,\"This Drug Either expired or exceeded Temparature, please store it in your wharehouse for return\");\n            DrugDetails = BatchDrugDetails[_SerialNumber];\n            DistributorDetails.DistributorUserName = _DistributorUserName;\n            DistributorDetails.Location = _Location;\n            DistributorDetails.ImportingTemparature = _ImportingTemparature;\n            DistributorDetails.ImportingDateTime = block.timestamp;\n            \n            DistributorDetails.DrugStatus = \"Received\";\n            BatchdistributorDetails[_SerialNumber] = DistributorDetails;\n            DrugDetails.CurrentproductOwner = _DistributorUserName ;\n            DrugDetails.NextOwner = \"\";\n            DrugDetails.Currentlocation = _Location;\n             DrugDetails.Status = \"Received\"; \n             BatchDrugDetails[_SerialNumber] = DrugDetails;\n             return true;    \n        }\n\n\n\n\n    \n\n    function moveFromDistributor(string memory ThisUser,\n                                address _SerialNumber,\n                                int8 _ExportingTemparature, \n                                 string memory _ExporterUserName) public isValidPerformer(_SerialNumber,\"Distributor\",ThisUser,false) returns(bool){\n           bool good =  isBad(_SerialNumber,_ExportingTemparature);\n        require(good,\"Cannot ship the Drug, This Drug Either expired or exceeded Temparature\");\n\n               DrugDetails = BatchDrugDetails[_SerialNumber];      \n                     DrugDetails.Status = \"Shipped\";  \n                     DrugDetails.NextOwner = _ExporterUserName;\n            DistributorDetails.ExportingTemparature = _ExportingTemparature;\n            DistributorDetails.ExportingDateTime = block.timestamp;\n            DistributorDetails.DrugStatus = \"Shipped\";\n            BatchdistributorDetails[_SerialNumber] = DistributorDetails;\n             nextOwner[_SerialNumber] = _ExporterUserName; \n             BatchDrugDetails[_SerialNumber] = DrugDetails;\n            return true; \n        }\n\n\n\n\n        function wholesalerReceving(\n                                     address _SerialNumber,\n                                     string memory _WholeSalerUserName,\n                                     string memory _Location,\n                                     int8 _ImportingTemparature) \n                                     public isValidPerformer(_SerialNumber,\"Wholesaler\",_WholeSalerUserName,true) returns(bool){\n            bool good =  isBad(_SerialNumber,_ImportingTemparature);\n           require(good,\"This Drug Either expired or exceeded Temparature, please store it in your wharehouse for return\");\n            DrugDetails = BatchDrugDetails[_SerialNumber];\n            WholesalerDetails.WholeSalerUserName = _WholeSalerUserName;\n            WholesalerDetails.Location = _Location;\n            WholesalerDetails.ImportingTemparature = _ImportingTemparature;\n            WholesalerDetails.ImportingDateTime = block.timestamp;\n            \n            WholesalerDetails.DrugStatus = \"Received\";\n            BatchWholesalerDetails[_SerialNumber] = WholesalerDetails;\n            DrugDetails.CurrentproductOwner = _WholeSalerUserName;\n            DrugDetails.NextOwner = \"\";\n            DrugDetails.Currentlocation = _Location;\n             DrugDetails.Status = \"Received\"; \n             BatchDrugDetails[_SerialNumber] = DrugDetails;\n             return true;    \n        }\n\n\n    function moveFromWholeSaler(string memory ThisUser,\n                                address _SerialNumber,\n                                int8 _ExportingTemparature, \n                                 string memory _PharmacyUserName) public isValidPerformer(_SerialNumber,\"Wholesaler\",ThisUser,false)  returns(bool){\n           bool good =  isBad(_SerialNumber,_ExportingTemparature);\n        require(good,\"Cannot ship the Drug, This Drug Either expired or exceeded Temparature\");\n\n               DrugDetails = BatchDrugDetails[_SerialNumber];      \n                     DrugDetails.Status = \"In Transit from Distributor\";  \n                     DrugDetails.NextOwner = _PharmacyUserName;\n                      DrugDetails.Status = \"Shipped\";\n            WholesalerDetails.ExportingTemparature = _ExportingTemparature;\n            WholesalerDetails.ExportingDateTime = block.timestamp;\n            WholesalerDetails.DrugStatus = \"Shipped\";\n            BatchWholesalerDetails[_SerialNumber] = WholesalerDetails;\n             nextOwner[_SerialNumber] = _PharmacyUserName; \n             BatchDrugDetails[_SerialNumber] = DrugDetails;\n            return true; \n        }\n\n\nfunction importToPharmacy(address _SerialNumber,\n        string memory _PharmacyUserName,\n        string memory _Location,\n        int8 _ImportingTemparature) public isValidPerformer(_SerialNumber,\"Pharmacy\",_PharmacyUserName,true) returns(bool){\n               bool good =  isBad(_SerialNumber,_ImportingTemparature);\n         require(good,\"This Drug Either expired or exceeded Temparature, please store it in your wharehouse for return\");\n            DrugDetails = BatchDrugDetails[_SerialNumber];\n            DrugDetails.NextOwner =\"DONE\"; \n             DrugDetails.Currentlocation = _Location;\n            DrugDetails.Status = \"Received\";\n            PharmacyDetails.PharmacyName = _PharmacyUserName;\n            PharmacyDetails.Location = _Location;\n            PharmacyDetails.ImportingTemparature = _ImportingTemparature;\n            PharmacyDetails.DrugStatus = \"Received\";\n            PharmacyDetails.ImportingDateTime = block.timestamp;\n            BatchPharmacyDetails[_SerialNumber] = PharmacyDetails;\n             nextOwner[_SerialNumber] = \"DONE\";\n             BatchDrugDetails[_SerialNumber] = DrugDetails;\n            return true;\n}\n    \n\n\n// function getUserDetails(string memory _Username,string memory ThisUser) ValidUser(ThisUser)external view returns(User memory){\n//     return BatchUserDetails[_Username];\n// }\n\n// function getDrugDetails(address  _SerialNumber,string memory ThisUser) ValidUser(ThisUser) external view returns(Drug memory){\n//     return BatchDrugDetails[_SerialNumber];\n// }\n\n// function getManufacturerDetails(address  _SerialNumber,string memory ThisUser) ValidUser(ThisUser) external view returns(Manufacturer memory){\n// return BatchManufactureringDetails[_SerialNumber];\n// }\n// function getDistributorDetails(address  _SerialNumber,string memory ThisUser) ValidUser(ThisUser) external view returns(distributor memory){\n// return BatchdistributorDetails[_SerialNumber];\n// }\n\n// function getWholesalerDetails(address  _SerialNumber,string memory ThisUser) ValidUser(ThisUser) external view returns(Wholesaler memory){\n// return BatchWholesalerDetails[_SerialNumber];\n// }\n\n// function getPharmaDetails(address  _SerialNumber,string memory ThisUser) ValidUser(ThisUser) external view returns(Pharmacy memory){\n// return BatchPharmacyDetails[_SerialNumber];\n// }\n\n\n\n// function getDrugDetails1(address  _SerialNumber) public view returns(uint32,uint32,string memory,string memory){\n//    Drug memory tmpData = BatchDrugDetails[_SerialNumber];\n//    return (tmpData.DrugID,tmpData.BatchID,tmpData.DrugName,tmpData.Currentlocation);\n// }\n\n\n\n// function getDrugDetails2(address _SerialNumber) public view returns(string memory,string memory,uint,uint,int8,int8,string memory,bool){\n// Drug memory tmpData = BatchDrugDetails[_SerialNumber];\n// return (tmpData.CurrentproductOwner,tmpData.NextOwner,tmpData.MfgTimeStamp,tmpData.ExpTimeStamp,tmpData.CurrentTemperature,tmpData.IdealTemperature,tmpData.Status,tmpData.IsBad);\n// }\n\n   \nfunction isBad(address _SerialNumber,int8 Temparature) internal returns(bool){\n    require(!BatchDrugDetails[_SerialNumber].IsBad);\n  DrugDetails = BatchDrugDetails[_SerialNumber];\n  DrugDetails.CurrentTemperature = Temparature;\n     \n\n    if(Temparature > DrugDetails.IdealTemperature){\n        DrugDetails.IsBad = true;\n        DrugDetails.Status = \"Exceeded ideal temperature\";\n           BatchDrugDetails[_SerialNumber] = DrugDetails;\n\n        return false;\n    }\n    else if(DrugDetails.ExpTimeStamp <=block.timestamp){\n         DrugDetails.IsBad = true;\n        DrugDetails.Status = \"Drug Expired\";\n            BatchDrugDetails[_SerialNumber] = DrugDetails; \n        return false;\n    }    \n    return true;\n     }\n\n       function Authenticate(string memory _username,string memory _password) public view returns(bool){\n       User memory user = BatchUserDetails[_username];\n      if((keccak256(abi.encodePacked(user.UserName))== keccak256(abi.encodePacked(_username)))){\n              if(keccak256(abi.encodePacked(user.Password))== keccak256(abi.encodePacked(_password))){\n                  return true;\n              }\n       return false;\n      }\n      return false; \n   }\n function changeAdmin(address newAdmin,string memory _UserName, string memory ThisUser) public onlyAdmin(ThisUser){\n  User storage user =    BatchUserDetails[_UserName];\n  user.Role = \"Admin\";\nAdminAddress = newAdmin;\ndelete BatchUserDetails[ThisUser];\n    }\n\n\n\n    modifier isValidPerformer(address _SerialNumber, string memory role,string memory _UserName,bool receiving) {\n        require(keccak256(abi.encodePacked(userRole[_UserName])) == keccak256(abi.encodePacked(role)));\n        if(receiving){\n        require(keccak256(abi.encodePacked(nextOwner[_SerialNumber])) == keccak256(abi.encodePacked(_UserName)));\n        _;\n        }\n        else{\n                    require(keccak256(abi.encodePacked(BatchDrugDetails[_SerialNumber].CurrentproductOwner)) == keccak256(abi.encodePacked(_UserName)));\n                    _;\n        }\n        \n   }\n\n    modifier onlyAdmin(string memory _UserName){\n       require(keccak256(abi.encodePacked(userRole[_UserName])) == keccak256(abi.encodePacked(\"Admin\")));\n       _;\n   }\n  modifier onlyManufacturer(string memory _UserName){\nrequire(keccak256(abi.encodePacked(userRole[_UserName])) == keccak256(abi.encodePacked(\"Manufacturer\")));\n       _;\n  }\n\nmodifier ValidUser(string memory _UserName){\nrequire(isAutherised[_UserName]);\n_;\n}\n\n}\n\n\n\n\n\n\n\n\n\n",
  "sourcePath": "/Users/tejasatyanarayanathotakura/Desktop/Worked Projects/UserBasedSupplyChain/contracts/PharmaSupplyChain.sol",
  "compiler": {
    "name": "solc",
    "version": "0.8.13+commit.abaa5c0e.Emscripten.clang"
  },
  "schemaVersion": "3.4.6",
  "updatedAt": "2022-04-01T05:55:40.422Z",
  "devdoc": {
    "kind": "dev",
    "methods": {},
    "version": 1
  },
  "userdoc": {
    "kind": "user",
    "methods": {},
    "version": 1
  }
}